:020000040800F2
:100000000008002045010008710F0008190F0008C2
:100010006D0F0008A7090008ED1E00080000000091
:100020000000000000000000000000005D1100085A
:10003000750B000800000000E50F00089D14000883
:100040005F0100085F0100085F0100085F01000810
:100050005F0100085F0100085F0100085F01000800
:100060005F0100085F0100085F0100085F010008F0
:100070005F0100085F0100085F0100085F010008E0
:100080005F0100085F0100085F0100085F010008D0
:100090005F0100085F0100085F0100085F010008C0
:1000A0005F0100085F0100080D1500085F010008EE
:1000B0001D150008451500086D1500085F010008B2
:1000C0005F0100085F0100085F0100085F01000890
:1000D0005F010008711B0008D91B0008311C0008D3
:1000E0005F0100085F0100085F0100085F01000870
:1000F0005F0100085F0100085F0100085F01000860
:100100005F0100085F010008951500085F01000805
:100110005F0100085F0100085F0100085F0100083F
:100120005F0100085F0100085F0100085F0100082F
:10013000DFF80CD000F0D4FB004800471135000870
:10014000000800200648804706480047FEE7FEE713
:10015000FEE7FEE7FEE7FEE7FEE7FEE7FEE7FEE777
:10016000A114000831010008F0B480EA0102D40FA4
:100170004200B2EB410F02D20246084611464A0045
:1001800042D0C30DDDB2C1F3C752AD1A202D35DA0E
:10019000C1F3160141F4000204B15242C5F1200638
:1001A00002FA06F12A411044B3EBD05F23D0C4B168
:1001B000012DA0EBC35009DCF0BC4FF0004202EA75
:1001C000C352DBB200F5000000F0E7BA400000F1D6
:1001D000807000EBC350A0F1807040EAD1704900FC
:1001E00009E0490841EAC071A0EBC35000F50000E6
:1001F000400800EBC350F0BC00F0C6BA61420122D7
:1002000002EB4101001BF6E7F0BC704781F00041B2
:10021000AAE780F00040A7E780EA010210B502F0EB
:100220000043400022D04A001FD0010E01EB1261B2
:10023000C0F35600C2F3560240F4000042F400023C
:10024000A0FB022000047F39140400D0401C50EAB7
:10025000124001D44000491EC2B20C0604EBD0107B
:10026000401C4008802A02D003E0002010BD20F08E
:100270000100002900DA0020184310BD30B480EAE4
:10028000010202F0004530F0004221F0004013D09E
:1002900090B1C30DD40DC2F31601C0F31600E41AD9
:1002A00041F4000140F400027D34914201D3641C0A
:1002B00000E04900002C02DA30BC002070474FF407
:1002C00000000023914201D3891A034340084FEAFA
:1002D0004101F7D151B1914202D14FF0004105E007
:1002E00002D24FF0010101E06FF0010103EBC450B5
:1002F000284430BC00F048BA2DE9FE4F804681EA20
:100300000300C00F0C46009021F0004123F000458F
:10031000B8EB0200A94105D24046214690461C4652
:100320000B46024623F00040104347D0270DC7F389
:100330000A00C3F30A510290401A019040286BDA78
:10034000C3F3130040F4801B0098924620B10023B1
:10035000D2EB030A63EB0B0B01985946C0F1400244
:10036000504600F0F0F906460D4650465946019AAF
:1003700000F0F8F910EB08006141002487EA1152FF
:1003800084EAE7731A4340D0009A62B3019A012AC3
:100390004FEA075215DC001B61EB02014FF00042EF
:1003A00002EA0752CDE90042001C41F580113246B5
:1003B0002B4600F02FFA03B0BDE8F08F40462146EF
:1003C000F9E7001B61EB0201001C41F580130018E6
:1003D0005B412018A2F5001747EB030140EAD570F6
:1003E000B6196D4111E06D084FEA360645EAC07551
:1003F0004FEA0752001B61EB0201001C41F580111E
:1004000049084FEA30000019514132462B4603B0EB
:10041000BDE8F04F00F0EFB9009801224000002342
:10042000D0EB020263EBE073009821464FEAE074E0
:10043000B8EB000061EB0401E9E783F000435BE700
:1004400081F0004158E72DE9FE4F81EA030404F0F2
:10045000004421F0004100944FF0000B23F00043D2
:1004600050EA01045ED052EA03045BD0C3F30A549D
:10047000C1F30A552C44A4F2F3340194A0FB0254B6
:10048000C1F3130141F48011C3F3130343F4801348
:1004900001FB024400FB034E840A970A44EA81549C
:1004A00047EA8357A4FB076802958D0A05FB078579
:1004B0004FEA932C04FB0C542705029D4FEA065883
:1004C00047EA1637B5EB08056EEB070C870E920E60
:1004D00047EA811742EA8312A7FB0201B6EB0B0140
:1004E00064EB00042B0D43EA0C335E1844EB1C5004
:1004F000DA465146E7FB0201C5F313044FEA0B331A
:1005000043EA14534FEA0432019C43EA0603A4F180
:100510000C040294009CCDE900B400F07BF903B018
:10052000BDE8F08F00200146F9E72DE9F04D81EAA2
:10053000030404F0004B21F0004514464FF0000A7C
:1005400023F0004150EA050220D054EA01021DD0F8
:10055000C5F30A570246C5F31303C1F31300C1F3F1
:100560000A5640F4801543F48013A7EB0608101BCD
:10057000D64608F2FD3873EB050002D308F10108F6
:1005800001E092185B41B8F1000F03DA0020014648
:10059000BDE8F08D00204FF48011064684460EE041
:1005A000171B73EB050705D3121B63EB050306430B
:1005B0004CEA010C49084FEA300092185B4150EABE
:1005C0000107EDD152EA030012D082EA040083EA67
:1005D0000501084305D0101BAB4106D201220023C0
:1005E00006E000224FF0004302E06FF001025310DA
:1005F0001AEB06004CEB085110EB0A0041EB0B0123
:10060000BDE8F04D00F0F7B8C10F80EAE070084493
:10061000CA079623002100F0C0B896230022114695
:1006200000F0BBB820F00040C10DC0F3160040F44C
:1006300000007F2901DA00207047962903DCC1F110
:100640009601C840704796398840704700F00042D4
:1006500030F000400AD0C10D01F56071C0F3160002
:1006600042EA0151C2084007114370470020014689
:100670007047000030B5041E71F1000404DB4FF038
:100680000044404264EB0101141E73F1000405DBD9
:100690001C464FF00043524263EB0403994208BFEB
:1006A000904230BD002801DBC0F10040002901DB91
:1006B000C1F100418142704730B50B460146002030
:1006C0002022012409E021FA02F59D4205D303FA14
:1006D00002F5491B04FA02F52844151EA2F1010295
:1006E000F1DC30BD2DE9F05F0546002092469B46C7
:1006F00088460646814640241BE028464146474638
:10070000224600F0FFF853465A46C01A914110D3D2
:1007100011461846224600F016F82D1A67EB01081C
:100720004F4622460120002100F00DF817EB00098A
:100730004E41201EA4F10104DFDC484631462A4622
:100740004346BDE8F09F202A04DB203A00FA02F17C
:10075000002070479140C2F1200320FA03F31943AF
:1007600090407047202A06DBCB17203A41FA02F06E
:1007700043EAE07306E041FA02F3D040C2F12002FE
:1007800091400843194670470029A8BF7047401C94
:10079000490008BF20F00100704710B4B0FA80FC97
:1007A00000FA0CF050EA010404BF10BC704749B1D4
:1007B000CCF1200421FA04F411FA0CF118BF012144
:1007C00021430843A3EB0C01CB1D4FEA00614FEA24
:1007D000102042BF002010BC704700EBC3501044F3
:1007E0000029A4BF10BC7047401C490008BF20F07E
:1007F000010010BC704710B5141E73F1000408DA34
:10080000401C41F1000192185B411A4301D120F0D4
:10081000010010BD2DE9F04D92469B4611B1B1FA91
:1008200081F202E0B0FA80F220329046FFF78BFFAF
:1008300004460F4640EA0A0041EA0B0153465A4675
:10084000084313D0114653EA010019D0C8F1400201
:10085000504600F057F805460E4650465946424667
:10086000FFF771FF084305D0012004E02046394618
:10087000BDE8F08D0020054346EAE0762C4337437F
:100880000A986305E40AA0EB08000022FD0A44EA86
:1008900047540A3002D500200146E9E70105101946
:1008A0006941DDE9084500196941BDE8F04DA2E75D
:1008B000C1F30A52C1F3130140F2FF3341F4801136
:1008C0009A4202DA00200146704740F233439A42CE
:1008D000A2F2334202DC524200F014B8FFF733BFF9
:1008E000064C074D06E0E06840F0010394E807007D
:1008F00098471034AC42F6D3FFF71EFC803900084D
:10090000A0390008202A04DB203A21FA02F0002155
:10091000704721FA02F3D040C2F12002914008430F
:10092000194670472DE9F04F95B004460D4616461E
:100930001F46DDE920ABDDE91E890020ADF8380057
:10094000ADF83E008DF8460040F2E730ADF84200C9
:100950000020ADF844006020ADF83A000020ADF86A
:1009600048000194ADF808500396ADF81070CDF82A
:100970002480ADF840B0CDF82890ADF82CA0229896
:10098000139023981490249805902598ADF818009A
:10099000269807902798ADF8200001A802F09EFE47
:1009A00015B0BDE8F08F00BFFEE7000000F08051F9
:1009B00011B10349086001E0024948607047000036
:1009C000040402400000024021B1026842F001022A
:1009D000026004E002684FF6FE731A40026070473E
:1009E00001684FF6FE721140016000210160416014
:1009F0008160C1604B49884208D14A490839496839
:100A000041F00F01474A083A51608AE045491431E4
:100A1000884208D143490839496841F0F001414A08
:100A2000083A51607DE03F492831884208D13D496C
:100A30000839496841F470613A4A083A516070E0F7
:100A400038493C31884208D136490839496841F46F
:100A50007041344A083A516063E03249503188426B
:100A600008D130490839496841F470212D4A083AC3
:100A7000516056E02B496431884208D12949083930
:100A8000496841F47001274A083A516049E0254914
:100A90007831884208D123490839496841F07061AA
:100AA000204A083A51603CE01F49884206D1011FA4
:100AB000096841F00F01021F116032E01A49143138
:100AC000884208D11849091F096841F0F001164A07
:100AD000121F116025E014492831884208D11249BB
:100AE000091F096841F470610F4A121F116018E074
:100AF0000D493C31884208D10B49091F096841F46E
:100B00007041094A121F11600BE0074950318842B9
:100B100007D10549091F096841F47021024A121FD3
:100B2000116070470800024008040240014648680E
:100B300080B2704710B50022026847F6F0739A43FE
:100B40000C6A8B6823430C6923434C6923438C69EB
:100B50002343CC6923434C6A23438C6A23431A43BF
:100B60000260CB6843600B6883604B68C36010BD54
:100B70004160704770470000F0B5A1B004460D46D3
:100B8000002600272078AA2805D06078AA2802D05D
:100B9000002021B0F0BDA81E205C552805D0681E9D
:100BA000205C552801D00020F3E7A41C681FC5B2C3
:100BB00021E02078A5280AD022783846791CCFB2C7
:100BC00001A90A5414F8011B8819C6B211E0012DBD
:100BD00001D10020DDE7601C044602783846791C0C
:100BE000CFB201A90A5414F8011B8819C6B2681EB5
:100BF000C5B2681EC5B2002DDBDC9DF807000228D7
:100C00001FD19DF809109DF80A2041EA022108B27F
:100C1000FFF7FAFC4E4908609DF80B109DF80C2078
:100C200041EA022108B2FFF7EFFC4A4908609DF84B
:100C30000D109DF80E2041EA0220FFF7E5FC464921
:100C400008609DF8070024283AD101A802F042F973
:100C50009DF81700012806D002280FD0032818D0CD
:100C600004282CD120E03D480068012805D100204F
:100C70003A4908603A4802F0DFFC20E03748406813
:100C8000012805D1002035494860354802F0D4FCE0
:100C900015E032488068012805D100202F4988607E
:100CA0002F4802F0C9FC0AE02C48C068012805D191
:100CB00000202A49C8602A4802F0BEFC00BF00BFDD
:100CC0009DF80700252840D19DF811009DF81210CD
:100CD00040EA012000B29DF81310224A52F8211078
:100CE000C8849DF809109DF80A2041EA0220FFF708
:100CF0008BFC9DF813101B4A52F8211088629DF856
:100D00000B109DF80C2041EA0220FFF77DFC9DF8B6
:100D10001310144A52F82110C8629DF814009DF86F
:100D2000151040EA012000B29DF8131052F821106E
:100D3000C8869DF816009DF8171040EA012000B201
:100D40009DF8131052F821108886012021E7000039
:100D500074000020780000207C0000205C0000204F
:100D6000980100208C0100202DE9F0410246002569
:100D70000026002000230024002791F803C00CF077
:100D80000F0591F803C00CF0100CBCF1000F03D05C
:100D900091F802C04CEA050591F800C0BCF1000FC3
:100DA00031D0146800202BE04FF0010C0CFA00F356
:100DB000B1F800C00CEA03069E4220D183004FF038
:100DC0000F0C0CFA03F7BC4305FA03FC4CEA0404CD
:100DD00091F803C0BCF1280F06D14FF0010C0CFABA
:100DE00000FCC2F814C00AE091F803C0BCF1480F3F
:100DF00005D14FF0010C0CFA00FCC2F810C0401CE9
:100E00000828D1D31460B1F800C0BCF1FF0F34DD65
:100E1000546800202EE000F1080C4FF0010808FA99
:100E20000CF3B1F800C00CEA03069E4221D1830006
:100E30004FF00F0C0CFA03F7BC4305FA03FC4CEA25
:100E4000040491F803C0BCF1280F05D100F1080C8F
:100E500008FA0CF8C2F8148091F803C0BCF1480FEE
:100E600007D100F1080C4FF0010808FA0CF8C2F89D
:100E70001080401C0828CED35460BDE8F0810000EB
:100E8000F0B50A46002300240021002500F00046AA
:100E9000B6F1004F02D11D4EF16901E01B4E7168A1
:100EA000C0F3034583B200F44016B6F5401F08D1E5
:100EB00021F07061154E766826F07066134F7E60E3
:100EC00012E000F48016B6F5801F06D1032606FA5C
:100ED00005F4A14341F0706106E0460D360103FAC6
:100EE00006F6B14341F0706122B1460D360103FAB6
:100EF00006F6314300F00046B6F1004F02D1034E32
:100F0000F16101E0014E7160F0BD000000000140A0
:100F1000416170470161704700BFFEE7F0B58BB0DB
:100F200007460C4615461E460121084600F05CF8AF
:100F30003846FFF755FD0094019500200290039676
:100F400004908020059000200690079008904FF4B0
:100F50008050099000200A9069463846FFF7EAFD64
:100F600001213846FFF730FD0BB0F0BD00BFFEE7B2
:100F70007047000070B5002100230F22C47804B32D
:100F8000154C246804F4E064C4F5E064210AC1F15E
:100F90000403CA40447804FA03F1847814402143DE
:100FA00009010E4C0678A155047804F01F050124B0
:100FB000AC4005786D11AD0005F1E025C5F80041A4
:100FC00009E0047804F01F050124AC40044D0678C4
:100FD000761145F8264070BD0CED00E000E400E01D
:100FE00080E100E07047000029B1064A52690243DF
:100FF000044B5A6104E0034A52698243014B5A612F
:10100000704700000010024029B1064AD26902432D
:10101000044BDA6104E0034AD2698243014BDA618E
:10102000704700000010024029B1064A12690243CD
:10103000044B1A6104E0034A12698243014B1A61AE
:10104000704700000010024029B1064A926902432D
:10105000044B9A6104E0034A92698243014B9A610E
:10106000704700000010024029B1064AD2680243CE
:10107000044BDA6004E0034AD2688243014BDA6031
:10108000704700000010024030B50021002200240B
:1010900000232D4D6D6805F00C0121B1042905D008
:1010A000082923D105E0294D056022E0274D056080
:1010B0001FE0254D6D6805F47012234D6D6805F431
:1010C0008034022505EB92421CB9214D5543056041
:1010D0000BE01D4D6D6805F400351DB11C4D5543E9
:1010E000056002E0194D5543056002E0174D0560AB
:1010F00000BF00BF144D6D6805F0F0010909154DE2
:101100006B5C0568DD4045600F4D6D6805F4E0617E
:10111000090A104D6B5C4568DD4085600A4D6D68BD
:1011200005F46051C90A0B4D6B5C4568DD40C56034
:10113000054D6D6805F44041890B074D6B5CC56832
:10114000B5FBF3F5056130BD0010024000127A00D6
:1011500000093D0000000020100000207047000042
:101160002DE9F0410446606C008A00F0010040B1B6
:1011700094F82200401C84F822000020616C088250
:1011800008E0606C808C94F822104FF6FF7202FB2E
:1011900001002083206C808CE18F401A07D4206CE2
:1011A000808CE18F401AA18F0844A08709E0206C51
:1011B000808DE18F401A216C898C0844A18F0844EE
:1011C000A087A08FFFF729FA06460F49FFF756F8C8
:1011D0000546206C808CE087B4F93400B4F93610F1
:1011E00090FBF1F0218B628B891A00FB01F73846E6
:1011F000FFF70AFA06462946FFF740F8E061208B20
:101200006083BDE8F081000000FA7F47C26CB2F154
:10121000804F1DD10222494B5A54494A494B1A600A
:10122000494A1268464B9A4202D0484A464B1A60D5
:10123000474A1268424B9A4202D0444A444B1A60D1
:10124000444A12683E4B9A4202D0404A414B1A60CF
:10125000414BC26C9A421DD10322384B5A54384A32
:10126000394B1A60374A1268354B9A4202D0374AD6
:10127000344B1A60364A1268314B9A4202D0334AD4
:10128000334B1A60334A12682D4B9A4202D02F4AD0
:10129000304B1A60314BC26C9A421DD10422274B4D
:1012A0005A54274A2A4B1A60274A1268244B9A42FA
:1012B00002D0264A244B1A60224A1268204B9A42D6
:1012C00002D0224A1F4B1A60224A12681C4B9A42D3
:1012D00002D01E4A1F4B1A60214BC26C9A421DD18C
:1012E0000522164B5A54164A1A4B1A60164A1268AF
:1012F000134B9A4202D0154A134B1A60144A1268D3
:101300000F4B9A4202D0114A114B1A600D4A1268D3
:101310000B4B9A4202D00D4A0A4B1A60114A124BEB
:101320001A60124A124B1A60124A134B1A60134A7F
:10133000134B1A60134A144B1A607047F4010020D3
:10134000612300089000002094000020D32E0008A4
:10135000980000209C00002000040040000800408D
:10136000000C004001150008A000002039150008FD
:10137000A400002061150008A800002089150008BD
:10138000AC000020B1150008B000002010B500F03E
:1013900001F810BD0CB500200190009033480068A2
:1013A00040F480303149086000BF3048006800F4E4
:1013B000003000900198401C0190009818B90198E5
:1013C000B0F5A06FF1D12948006800F4003010B1E9
:1013D0000120009001E0002000900098012843D1F6
:1013E0002348006840F01000214908600846006862
:1013F00020F0030008600846006840F00200086022
:101400001A484068194948600846406848600846DC
:10141000406840F4806048600846406820F47C10D2
:1014200048600846406840F4E81048600846006894
:1014300040F08070086000BF0C48006800F0007049
:101440000028F9D00948406820F0030007494860A7
:101450000846406840F00200486000BF034840680A
:1014600000F00C000828F9D10CBD0000001002406B
:1014700000200240042808D14FF0E021096941F022
:1014800004014FF0E022116107E04FF0E02109690B
:1014900021F004014FF0E022116170477047000015
:1014A00010B51348006840F0010011490860084673
:1014B0004068104908400E494860084600680E49D7
:1014C00008400B4908600846006820F48020086046
:1014D0000846406820F4FE0048604FF41F00886012
:1014E000FFF754FF4FF000600449086010BD000092
:1014F000001002400000FFF8FFFFF6FE08ED00E0DC
:101500000020014908807047102C014010B50248A6
:101510000068804710BD0000A000002010B5022028
:1015200003490968884703480068804710BD0000E8
:1015300090000020A400002000204FF0804108828D
:101540007047000010B50320034909688847034825
:101550000068804710BD000094000020A800002013
:1015600000200149088070471004004010B5042095
:1015700003490968884703480068804710BD000098
:1015800098000020AC00002000200149088070472E
:101590001008004010B50520034909688847034832
:1015A0000068804710BD00009C000020B0000020B3
:1015B0000020014908807047100C004021B10288CA
:1015C00042F08002028004E002884FF67F731A40E6
:1015D0000280704721B1028842F00102028004E0DB
:1015E00002884FF6FE731A400280704731B1B0F89E
:1015F000442042F40042A0F8442005E0B0F8442022
:10160000C2F30E02A0F844207047000010B5044653
:101610006848844208D10121C014FFF725FD00214C
:10162000E014FFF721FDC4E0B4F1804F08D101219F
:101630000846FFF7F9FC00210120FFF7F5FCB8E0B0
:101640005D48844208D101210220FFF7EDFC002112
:101650000220FFF7E9FCACE05848844208D10121A0
:101660000420FFF7E1FC00210420FFF7DDFCA0E0EF
:101670005348844208D101210820FFF7D5FC0021FE
:101680000820FFF7D1FC94E04E48844208D10121A4
:101690001020FFF7C9FC00211020FFF7C5FC88E0EF
:1016A0004948844208D101212020FFF7BDFC0021D8
:1016B0002020FFF7B9FC7CE04448844208D1012196
:1016C0004014FFF7D1FC00216014FFF7CDFC70E05F
:1016D0003F48844209D10121C804FFF7C5FC00211D
:1016E0004FF40020FFF7C0FC63E03A48844209D180
:1016F00001210805FFF7B8FC00214FF48010FFF727
:10170000B3FC56E03448844209D101214805FFF773
:10171000ABFC00214FF40010FFF7A6FC49E02F4876
:10172000844208D101214020FFF77EFC00214020A7
:10173000FFF77AFC3DE02A48844208D1012180204D
:10174000FFF772FC00218020FFF76EFC31E0254896
:10175000844208D101218015FFF766FC0021A01505
:10176000FFF762FC25E02048844209D101210804EA
:10177000FFF77AFC00214FF48030FFF775FC18E08A
:101780001A48844209D101214804FFF76DFC002169
:101790004FF40030FFF768FC0BE01548844208D195
:1017A00001218804FFF760FC00214FF48020FFF73F
:1017B0005BFC10BD002C014000040040000800400C
:1017C000000C0040001000400014004000340140B4
:1017D000004C0140005001400054014000180040FE
:1017E000001C004000200040004001400044014037
:1017F0000048014001894FF6F8721140018170479D
:1018000070B5002400220023058C4FF6FE7635408B
:101810000584028C8388048B4FF68F752C40B51E8F
:101820002C400D882C43751E2A400D892A434D8873
:101830002A43144DA8420BD0134DA84208D0134D93
:10184000A84205D0124DA84202D0124DA84213D191
:101850004FF6F7752A404D892A434FF6FB752A400B
:101860008D882A434FF6FF652B404FF6FF552B40DE
:101870008D892B43CD892B4383800483CD88858636
:10188000028470BD002C0140003401400040014042
:1018900000440140004801400A460021018B4FF6F8
:1018A000F7731940114301837047000070B500249D
:1018B00000220023058C4FF6EF7635400584028C1C
:1018C0008388048B48F6FF752C404FF6FF452C406B
:1018D0000D884FF6FF7606EA05252C434FF6DF7597
:1018E0002A400D8906EA05152A434D8806EA0515A2
:1018F0002A43154DA84202D0144DA8421DD14FF6DF
:101900007F752A404D894FF6FF7606EA05152A4372
:101910004FF6BF752A408D8806EA05152A434FF613
:10192000FF352B404FF2FF752B408D8906EA850568
:101930002B43CD8906EA85052B4383800483CD881C
:101940000587028470BD0000002C01400034014076
:101950000A460021018B4FF2FF7319404FF6FF73C7
:1019600003EA0223194301837047000070B5002485
:1019700000220023058C4FF6FF6635400584028C5B
:101980008388848B4FF68F752C404FF6FC752C4066
:101990000D882C434FF6FF552A400D894FF6FF76F0
:1019A00006EA05252A434D8806EA05252A43154DF2
:1019B000A84202D0144DA8421DD14FF2FF752A4013
:1019C0004D894FF6FF7606EA05252A434FF6FF3587
:1019D0002A408D8806EA05252A434EF6FF752B40DE
:1019E0004DF6FF752B408D8906EA05152B43CD89F1
:1019F00006EA05152B4383808483CD88858702847E
:101A000070BD0000002C0140003401400A46002156
:101A1000818B4FF6F77319401143818370470000A3
:101A200070B5002200230024058C4EF6FF76354069
:101A30000584038C8488828B48F6FF752A404FF614
:101A4000FF452A400D884FF6FF7606EA05252A4312
:101A50004DF6FF752B400D8906EA05352B434D8861
:101A600006EA05352B430B4DA84202D00A4DA84289
:101A700008D14BF6FF752C408D894FF6FF7606EAAC
:101A800085152C4384808283CD88A0F84050038440
:101A900070BD0000002C0140003401400A460021C6
:101AA000818B4FF2FF7319404FF6FF7303EA022355
:101AB0001943818370470021018041808180C1806A
:101AC000018141818181C18170470000002202882B
:101AD0001D4B98420ED01D4B98420BD0B0F1804F59
:101AE00008D01B4B984205D01A4B984202D01A4B93
:101AF000984204D14FF68F731A404B881A43174B04
:101B0000984207D0164B984204D04FF6FF431A4034
:101B1000CB881A4302808B8883850B8803850A4B08
:101B200098420BD0094B984208D00E4B984205D0F2
:101B30000D4B984202D00D4B984201D10B7A03868F
:101B40000123838270470000002C014000340140D3
:101B50000004004000080040000C0040001000405D
:101B60000014004000400140004401400048014092
:101B700010B540F22441154800F0FCF828B30021CC
:101B80001348FEF721FF4FF48030FEF70FFF104897
:101B9000FEF7CCFFC0F16400C4B244F400400D492C
:101BA000088064210A48FEF7E3FF01210848FEF798
:101BB0000BFF06480088C4B20448001D0088C4B268
:101BC00040F22441014800F063F810BD00380140A4
:101BD000580002402C00002010B540F2244111486A
:101BE00000F0C8F8E0B100210F48FEF7EDFE0E4806
:101BF000FEF79CFFC0F16400C4B244F400400B49FE
:101C0000088064210848FEF7B3FF01210648FEF76B
:101C1000DBFE04480088C4B20248001D0088C4B23C
:101C200010BD0000004400406C0002403400002061
:101C300010B540F22441134800F09CF808B3124854
:101C4000008800F40040E0B900211048FEF7BCFE17
:101C50000E48FEF76BFFC0F16400C4B244F40040CC
:101C60000949088064210948FEF782FF01210748DD
:101C7000FEF7AAFE03480088C4B20248001D00888F
:101C8000C4B210BD004800403600002030000240C1
:101C900010B50022002340F66A14A14200D100BF13
:101CA0000A1201249440A3B2DC43048010BD21B188
:101CB000828942F40052828104E082894DF6FF73EA
:101CC0001A40828170471AB1838A0B43838202E0F3
:101CD000838A8B438382704710B504462048844230
:101CE00009D101218803FFF7BFF900214FF480409B
:101CF000FFF7BAF932E01B48844209D101214804B8
:101D0000FFF792F900214FF40030FFF78DF925E03D
:101D10001548844209D101218804FFF785F9002183
:101D20004FF48020FFF780F918E01048844209D171
:101D30000121C804FFF778F900214FF40020FFF7D4
:101D400073F90BE00A48844208D101210805FFF726
:101D50006BF900214FF48010FFF766F910BD000009
:101D6000003801400044004000480040004C004062
:101D70000050004070B502460024002300250020DA
:101D800040F66A16B14200D100BFC1F3421501F01E
:101D90001F03012606FA03F3012D02D19689334071
:101DA00006E0022D02D1168A334001E0968A3340C4
:101DB0000C12012606FA04F41688344013B10CB153
:101DC000012000E0002070BDF0B50346002400268D
:101DD0000025002040F66A17B94200D100BF18461E
:101DE000C1F3421401F01F06012707FA06F5012C82
:101DF00001D10C3004E0022C01D1103000E014308D
:101E00001AB107682F43076002E00768AF43076015
:101E1000F0BD00002DE9F04786B005460E460024CF
:101E2000A24600BFA1460027B08900B100BF2F46DF
:101E30002C8A4CF6FF700440F08804432C82AC8955
:101E40004EF6F3100440B088318908437189084385
:101E50000443AC81AC8A4FF6FF400440B089044390
:101E6000AC8201A8FFF710F91F48874202D1DDF8C4
:101E700010A001E0DDF80CA0A88900F4004040B1FA
:101E80000AEBCA0000EB0A1031684900B0FBF1F818
:101E900007E00AEBCA0000EB0A1031688900B0FBCA
:101EA000F1F86420B8FBF0F004012009642101FB83
:101EB0001089A88900F4004040B1322000EBC9002D
:101EC000B0FBF1F000F00700044308E0322000EB23
:101ED00009106421B0FBF1F000F00F0004432C81E5
:101EE00006B0BDE8F08700000038014000BFFEE703
:101EF00038B504460121AD20FFF7A6F8A088ADF85B
:101F0000000010208DF8030003208DF802006946C0
:101F10002068FEF729FFA089ADF8000010208DF899
:101F2000030003208DF802006946A068FEF71CFF3D
:101F300038BD000010B588B004460121AD20FFF780
:101F400083F8206AB0F1804F03D101210846FFF7E2
:101F50005BF84849206A884203D101210220FFF73B
:101F600053F84549206A884203D101210420FFF734
:101F70004BF84249206A884203D101210820FFF72B
:101F800043F8206AFFF736FC40F2E730ADF808006E
:101F90000020ADF8040094F84200ADF80A00B4F84F
:101FA0004400ADF8060001A9206AFFF78FFD01216A
:101FB000206AFFF703FB0121206AFFF70BFB04A84F
:101FC000FFF779FDE08EADF81000A08EADF8160099
:101FD0000020ADF818000120ADF8120094F83C0084
:101FE00000F0010038B104A9206AFFF709FC0821BC
:101FF000206AFFF751FC94F83C0000F0100038B163
:1020000004A9206AFFF752FC0821206AFFF7A0FC10
:10201000A08F00F4807038B104A9206AFFF7A6FCF5
:102020000821206AFFF7F2FCA08F00F4805038B13D
:1020300004A9206AFFF7F4FC0821206AFFF72EFDAF
:102040000121206AFFF7D2FA208DADF80000182098
:102050008DF8030003208DF802006946606AFEF7E0
:1020600083FEA06C18B10121A06CFEF709FF08B037
:1020700010BD00000004004000080040000C0040BB
:102080007CB5044600250121ED20FEF7DDFFA08A86
:1020900068B10125A08AADF8040004208DF807007E
:1020A00003208DF8060001A92069FEF75DFEA08BD4
:1020B00068B10225A08BADF8040004208DF807005C
:1020C00003208DF8060001A9A069FEF74DFE5649D0
:1020D000E06C884206D10121C014FEF7B5FF1A203A
:1020E0008DF80000E06CB0F1804F06D10121084668
:1020F000FEF78AFF1C208DF800004C49E06C8842F6
:1021000006D101210220FEF77FFF1D208DF800007F
:102110004749E06C884206D101210420FEF774FF94
:102120001E208DF800004349E06C884206D1012151
:102130000820FEF769FF32208DF80000E06CFFF701
:1021400065FA022D32D10020E16C08850120E16C96
:102150008885E06C008B40F00100E16C0883E06C46
:10216000008B40F48070E16C0883E06C008CE16CC3
:102170000884E06C008CE16C0884E06C008CE16CFD
:102180000884E06C008B40F03000E16C0883E06C68
:10219000008940F00100E16C0881E06C008840F0AB
:1021A0000100E16C0880012020633BE0012D39D162
:1021B0004FF6FA70E16C0885401DE16C8885E06C93
:1021C000008B40F00100E16C0883E06C008BE16C57
:1021D0000883E06C008BE16C0883E06C008CE16CA0
:1021E0000884E06C008C40F00100E16C0884E06C35
:1021F000808940F00200E16C8881E06C808940F0C9
:102200000100E16C88810020E16C088020630220DD
:102210008DF8010001208DF802008DF8030068465A
:10222000FEF7A8FE7CBD0000002C01400004004029
:1022300000080040000C00402DE9FF5F04460D46F9
:1022400016461F46DDF83890A06B18B12046FEF701
:1022500087FF1AE0A06BA0B9A08C90B1A08CFEF70C
:10226000DCF90190B4F93400B4F9361090FBF1FBBD
:102270005846FEF7C9F982460199FDF7FFFFE06174
:1022800003E0A08C08B90020E06100212846FEF799
:1022900009FA04D231492846FDF7BEFF0546284613
:1022A000E169FDF7B3FF0390E1696069FDF7AEFFF7
:1022B0000290606C808CB0F52F7F02DD0020A0843E
:1022C000E06120690399FDF74FFF206149460298BC
:1022D000FDF7A2FF834638462169FDF79DFF314691
:1022E00001900398FDF798FF00900199FDF73CFFDE
:1022F00082465946FDF738FF804600214046FEF7EA
:10230000D1F901D24FF00008E089012808D0102847
:102310000CD0B0F5807F0FD0B0F5805F19D111E0FF
:102320004046FEF77FF9216C888612E04046FEF7B2
:1023300079F9216C08870CE04046FEF773F9216CAF
:10234000888706E04046FEF76DF9216CA1F8400051
:1023500000BF00BFE0696061BDE8FF9F000080BF73
:1023600010B5024600200AE1884B1B5C93427DD1E8
:10237000874B53F820305B6C198A01F001037BB363
:10238000834B53F8203093F8223003F0400333B3EB
:102390007F4B53F8203093F8223003F03F033F2B5C
:1023A00012D14FF6FF737A4C54F82040A384784B37
:1023B00053F8203093F8223043F08003744C54F8E3
:1023C000204084F8223015E0714B53F8203093F808
:1023D00022305B1C6E4C54F8204084F8223009E017
:1023E000FFE76B4B53F820301B8B5B1C684C54F899
:1023F0002040238301F00203002B37D0644B53F8B5
:10240000203093F8223003F04003002B5FD00023EC
:102410005F4C54F8204084F822305D4B53F8203054
:102420005B6C9B8C5A4C54F82040A384584B53F857
:10243000203093F8223043F08003554C54F820406C
:1024400084F82230524B53F820305B6C1B8823F009
:1024500001034F4C54F82040646C238000234C4C03
:1024600054F82040646CA384494B00E080E053F8AA
:1024700020305B6C1B8C43F00103454C54F820402A
:10248000646C2384424B53F820305B6C9B8943F08F
:1024900001033F4C54F82040646CA3813C4B53F83B
:1024A00020305B6C1B8C23F00203394C54F8204025
:1024B000646C2384364B53F820305B6C1B8843F0EC
:1024C0000103334C54F82040646C238050E0304BBF
:1024D00053F820305B6C9B8C2D4C54F82040A38427
:1024E00000232B4C54F8204084F82230284B53F81A
:1024F00020305B6C1B8823F00103254C54F82040EE
:10250000646C23800023224C54F82040646CA38424
:102510001F4B53F820305B6C9B8943F001031C4C2C
:1025200054F82040646CA381194B53F820305B6C45
:102530001B8C43F00203164C54F82040646C238437
:10254000134B53F820305B6C1B8843F00103104C95
:1025500054F82040646C23800D4B53F8203093F8DE
:10256000223043F040030A4C54F8204084F82230D3
:102570000023074C54F82040646C2382401C054B18
:102580001B689842FFF6F0AE10BD0000F401002079
:10259000E8010020B40000200FB4054B10B503A9DA
:1025A000044A029800F0FEF810BC5DF814FB00002D
:1025B000793400083000002002E008C8121F08C16A
:1025C000002AFAD170477047002001E001C1121FB4
:1025D000002AFBD1704700002DE9FF5FDDE90220F2
:1025E000010DDDF838B0024318D044F61050A1F2C6
:1025F000FF3141430D140F98012820D0A5EB0B00AB
:10260000401C5FEA000A4FF00004474EDFF81C91BF
:10261000A046504616D5CAF1000728E00F980124BD
:1026200043A2012808D0002100980F9BC0E9002197
:10263000C0E90243BDE8FF9F6FEA0B01F4E7CBF16D
:102640000000DEE7074612E0F80707D022463346CF
:1026500040464946FDF7F7FE804689462246334606
:1026600010461946FDF7EFFE04460E467F10002F78
:10267000EAD1DDE90201BAF1000F42464B4602DA27
:10268000FDF7E1FE01E0FDF750FF04460E46002293
:10269000284BFDF7EFFF03D84FF0FF30014607E06E
:1026A0000022254B20463146FDF726FEFEF700F9B5
:1026B000102409E0002C0ADB0A220023FEF712F89E
:1026C000019B30321A55641E50EA0102F2D1641C9B
:1026D000019AC4F1110314440F9A012A03D0012274
:1026E00008430DD10AE0084304D000204FF0110B3D
:1026F0000F9080E7A3EB0B056D1E0DE05B4504DD3D
:102700004FF0000205F1010504E003DA4FF000028A
:10271000A5F10105002AECD000980F99C0E902311B
:10272000C0E9004586E70000000024400000F03FBB
:10273000300000000000F0430000E03F70B50446A8
:102740000D46164625B9A1882068FEF7E1FB05E095
:10275000012D03D1A1882068FEF7DCFB26B9A189F1
:10276000A068FEF7D5FB05E0012E03D1A189A06882
:10277000FEF7D0FBB4F92600002804DAA18820680F
:10278000FEF7C6FB07E0B4F92600002803DDA188A8
:102790002068FEF7BFFBE08C18B9A189A068FEF79E
:1027A000B7FB70BD2DE9FF4F95B09B4689460646A5
:1027B00000250FE2252877D100242746F84A012179
:1027C000059400E0044316F8013F203B01FA03F0B2
:1027D0001042F7D130782A2811D06FF02F033078CB
:1027E000A0F13002092A16D8059A44F0020402EB3F
:1027F000820203EB42021044761C0590EFE759F881
:10280000042B0592002A03DA504244F40054059048
:1028100044F00204761C30782E2816D116F8010FE9
:1028200044F004042A280DD06FF02F023078A0F174
:102830003003092B09D807EB870302EB4303C718C2
:10284000761CF3E759F8047B761C30786C280FD09F
:1028500006DC4C2817D068280DD06A2814D104E073
:10286000742810D07A280FD10DE044F400140AE047
:1028700044F4801401E044F440147278824202D19E
:1028800004F58014761C761C307866280BD013DC97
:10289000582877D009DC002875D04528F6D046287E
:1028A000F4D047281AD19DE118E0632835D0642878
:1028B00079D0652812D195E1702873D008DC67289B
:1028C000F1D069286FD06E280DD06F2806D1B5E001
:1028D00073282CD0752875D0782874D05A4617994B
:1028E00090476D1C75E1C4F30250022809D00328FB
:1028F0000DD0D9F8001004280DD00D6009F104099D
:1029000067E1D9F80010EA17C1E90052F6E7D9F8F3
:1029100000100D80F2E70D70F0E719F8041B8DF838
:10292000001000208DF80100EA46012003E059F86C
:1029300004AB4FF0FF3061074FF0000102D40DE00F
:1029400008F101018846B9420FDA8045F8DB1AF830
:1029500008100029F4D108E008F1010188468142FD
:10296000FADB1AF808100029F6D105985B46A0EBAF
:10297000080721463846179A00F094FA284400EBDD
:10298000080507E04DE029E10DE01AF8010B5A4671
:1029900017999047B8F10108F7D25B4621463846AF
:1029A000179A13E142E00A220092C4F302524FF058
:1029B000000A022A08D059F804CB032A4FEAEC7126
:1029C0000AD00DE029E02AE009F1070121F0070211
:1029D000F2E802C1914609E00FFA8CFC4FEAEC7173
:1029E000042A03D14FFA8CFC4FEAEC71002907DA74
:1029F0000A460021DCF1000C61EB02012D2202E00D
:102A0000220504D52B228DF80420012203E0E207E1
:102A100001D02022F7E7904659E00A2102E0102277
:102A20000DE010214FF0000A00910BE010224FF052
:102A3000000A44F004040827009203E008224FF043
:102A4000000A0092C4F30252022A05D059F804CBBE
:102A50000021032A08D009E009F1070121F007024B
:102A6000F2E802C1914605E01FFA8CFC042A01D16C
:102A70000CF0FF0C4FF00008220728D5702806D074
:102A8000009B83F0100353EA0A0305D00EE04022B6
:102A90008DF80420012208E05CEA010206D0302211
:102AA0008DF804208DF8050002229046009B83F0EB
:102AB000080353EA0A030AD15CEA010201D1620762
:102AC00005D530228DF804204FF001087F1E5828CC
:102AD00004D034A003900EA802900DE036A0F9E7D0
:102AE00053466046009AFDF7FDFD84460398825CDC
:102AF0000298401E029002705CEA0100F0D1029838
:102B000006A9081A00F1200A600702D524F48034CF
:102B100000E00127574502DDA7EB0A0000E0002096
:102B200000EB0A01009005984144401A0590E0032B
:102B300006D45B462146179A059800F0B3F9054480
:102B4000002706E001A85A46C05D179990476D1C02
:102B50007F1C4745F6DBE0030CD55B462146179A00
:102B6000059800F09FF9054404E030205A46179973
:102B700090476D1C0099481E00900029F5DC08E084
:102B8000029802995A460078491C02911799904779
:102B90006D1CBAF10001AAF1010AF1DC65E1000047
:102BA0000928010030313233343536373839616223
:102BB00063646566000000003031323334353637E7
:102BC00038394142434445460000000000F058F9BE
:102BD0000544761C307800287FF4ECAD19B0284607
:102BE000BDE8F08F620700D4062709F1070222F042
:102BF000070CFCE80223E14603F000485FEA080CFA
:102C000002D00FF2702C0DE05FEA045C02D50FF2E7
:102C1000682C07E05FEAC47C02D00FF2602C01E070
:102C2000AFF2700C4FF0FF3823F00043CDF850C0E6
:102C300065280CD006DC452809D046281DD0472839
:102C40003DD13DE0662818D067287ED138E00021CC
:102C5000112F01DB112000E0781CCDE9000106A94D
:102C60000EA8FFF7B9FCDDE90F010E9A03910021D0
:102C7000009207F1010A04914DE04FF000400097E7
:102C8000CDE9011006A90EA8FFF7A6FCDDE90F02A9
:102C900003920E9B11990022DDF80CA00093049280
:102CA00011B9791C00EB010AB7EB0A0004D4C0F19A
:102CB000FF3007F1010A0490AAEB0700019044E0FD
:102CC000012F00DA01270021112F01DD112000E082
:102CD0003846CDE9000106A90EA8FFF77DFCDDE925
:102CE0000F010E9A0391002104910092BA46210728
:102CF0000CD40399514500DA8A46BAF1010F05DD7B
:102D0000009AAAF10101515C302908D0B84202DAD8
:102D100010F1040F06DA0121CDE9011015E0AAF146
:102D20000101E9E7002805DC049901440491AAEBBC
:102D3000000102E0411C514500DD8A460499401A19
:102D4000401C01904FF000400290200704D40198ED
:102D5000504501DBCDF8048000208DF84F0002982B
:102D60000DF14F07B0F1004F25D02B200E900298A7
:102D70004FF0020800280CDA404202902D200E90FD
:102D800007E00A210298FDF797FC3031029007F81E
:102D9000011DB8F10001A8F10108F2DC0298002839
:102DA000EFD1791E0E980870307800F0200040F0C6
:102DB000450007F8020D12A8C01B00F1070814987F
:102DC000007800B1012000EB0A01019801EBE071ED
:102DD00005984144401A401E0590E00306D45B4626
:102DE0002146179A059800F05DF80544149800787C
:102DF00018B15A46179990476D1CE00324D55B46DD
:102E00002146179A059800F04DF805441CE00498F7
:102E1000002807DBDDE90301884203DD0098405C00
:102E2000179901E0179930205A469047049805F108
:102E30000105401C04900198401E019004D12E20F1
:102E40005A46179990476D1CBAF10001AAF1010A80
:102E5000DDDC05E017F8010B5A46179990476D1C09
:102E6000B8F10001A8F10108F4DC5B462146179A8D
:102E70000598ABE62D0000002B00000020000000AC
:102E80002DE9F041044600251E461746880404D467
:102E900005E039462020B0476D1C641EF9D5284650
:102EA000BDE8F0812DE9F041044600251E4690461C
:102EB000C80301D5302700E02027880404D505E0A9
:102EC00041463846B0476D1C641EF9D52846BDE81A
:102ED000F0817047C179052919D2DFE801F00307B5
:102EE0000C101400F849F94AD16410E04FF0804109
:102EF000F64AD1640BE0F649F44AD16407E0F5499B
:102F0000F24AD16403E0F449F04AD16400BF00BF43
:102F1000017A052919D2DFE801F003070C1014002B
:102F2000E949EA4A116210E04FF08041E74A116234
:102F30000BE0E749E54A116207E0E649E34A11621E
:102F400003E0E549E14A116200BF00BF417A06296A
:102F50001CD2DFE801F003070B0F1317DF49DB4A30
:102F6000116013E0DE49D94A11600FE0DD49D74A0C
:102F700011600BE0DC49D54A116007E0DB49D34A18
:102F8000116003E0DA49D14A116000BF00BF817AC5
:102F900006291CD2DFE801F003070B0F1317CF49F6
:102FA000CA4A916013E0CE49C84A91600FE0CD490A
:102FB000C64A91600BE0CC49C44A916007E0CB4916
:102FC000C24A916003E0CA49C04A916000BF00BF95
:102FD000C17A06291CD2DFE801F003070B0F131793
:102FE000BE49BA4A116113E0BD49B84A11610FE008
:102FF000BC49B64A11610BE0BB49B44A116107E014
:10300000BA49B24A116103E0B949B04A116100BF3F
:1030100000BF017B06291CD2DFE801F003070B0F7C
:103020001317AE49A94A916113E0AD49A74A9161CE
:103030000FE0AC49A54A91610BE0AB49A34A91610D
:1030400007E0AA49A14A916103E0A9499F4A916119
:1030500000BF00BF417B06291CD2DFE801F0030757
:103060000B0F13179D49994A516213E09C49974AE7
:1030700051620FE09B49954A51620BE09A49934A8D
:10308000516207E09949914A516203E098498F4A99
:10309000516200BF00BF817B112957D2DFE801F0E8
:1030A000090D1115191D2125292E33383D42474C94
:1030B00051000121854A918048E00221834A918094
:1030C00044E00421814A918040E008217F4A9180B8
:1030D0003CE010217D4A918038E020217B4A91809C
:1030E00034E04021794A918030E08021774A918014
:1030F0002CE04FF48071754A918027E04FF4007105
:10310000724A918022E04FF48061704A91801DE004
:103110004FF400616D4A918018E04FF480516B4A82
:10312000918013E04FF40051684A91800EE04FF413
:103130008041664A918009E04FF40041634A9180E2
:1031400004E04FF6FF71614A918000BF00BF017C2F
:10315000112957D2DFE801F0090D1115191D21259C
:10316000292E33383D42474C51000121574A918264
:1031700048E00221554A918244E00421534A918259
:1031800040E00821514A91823CE010214F4A91824F
:1031900038E020214D4A918234E040214B4A91820F
:1031A00030E08021494A91822CE04FF48071474AF7
:1031B000918227E04FF40071444A918222E04FF45B
:1031C0008061424A91821DE04FF400613F4A918242
:1031D00018E04FF480513D4A918213E04FF40051C2
:1031E0003A4A91820EE04FF48041384A918209E0D8
:1031F0004FF40041354A918204E04FF6FF71334AA3
:10320000918200BF00BF417C112957D2DFE801F055
:10321000090D1115191D2125292E33383D42474C22
:1032200051000121294A918348E00221274A9183D4
:1032300044E00421254A918340E00821234A9183F8
:103240003CE01021214A918338E020211F4A9183DC
:1032500034E040211D4A918330E080211B4A918354
:103260002CE04FF48071194A918327E04FF40071EC
:10327000164A918322E04FF48061144A91831DE045
:103280004FF40061114A918318E04FF480510F4AC6
:10329000918313E04FF400510C4A91830EE04FF4F8
:1032A00080410A4A918309E04FF40041074A918323
:1032B00004E04FF6FF71054A918300BF00BF817C97
:1032C00011296FD216E00000002C01409801002067
:1032D0000004004000080040000C004000080140CD
:1032E000000C014000100140001401400018014092
:1032F000001C0140DFE801F0090D1115191D212501
:10330000292E33383D42474C51000121354A118561
:1033100048E00221334A118544E00421314A1185F5
:1033200040E008212F4A11853CE010212D4A1185EB
:1033300038E020212B4A118534E04021294A1185AB
:1033400030E08021274A11852CE04FF48071254A16
:10335000118527E04FF40071224A118522E04FF4D5
:103360008061204A11851DE04FF400611D4A1185DE
:1033700018E04FF480511B4A118513E04FF40051BF
:10338000184A11850EE04FF48041164A118509E074
:103390004FF40041134A118504E04FF6FF71114AC2
:1033A000118500BF00BF017D012906D0022909D087
:1033B00003290CD0042912D10DE04FF48051094AA1
:1033C00091870CE04FF48071064A918707E0102145
:1033D000044A918703E00121024A918700BF00BFA0
:1033E000704700009801002010B56FF00400FEF750
:1033F00041F80A4800680A49B0FBF1F00949087031
:103400000846007800EB4001C1EBC0104FF6FF7199
:1034100001EAC0000449088010BD0000140000202B
:1034200000127A00280000202A0000200146114ADC
:1034300012884A434FF0E0235A6100229A611A46EB
:10344000126942F001021A6100BF4FF0E0221069D8
:1034500000F001021AB100F48032002AF5D04FF0DA
:10346000E022126922F001024FF0E0231A610022EB
:103470009A6170472A00002000BF054A128802F0B6
:103480004002002AF9D0C2B2014B1B1D1A807047BE
:103490000044004010B5002821D0114B0022001F2D
:1034A000196803E0814203D80A4649680029F9D126
:1034B00052B11368841A9C4204D100681844106009
:1034C000104602E0506000E0186039B102680B1A43
:1034D000934203D10B681A4402604968416010BDF1
:1034E000BC00002008B501214FF49270FDF7ACFD3F
:1034F0000420ADF8000003208DF8020010208DF8A4
:10350000030069460148FDF72FFC08BD0008014093
:103510008AB0FFF769FFFFF7E5FF4FF4E13000F0F5
:10352000CBF94FF4E13000F065F900204022204B48
:10353000CDE90720069309901E480021821402233A
:10354000CDE90232CDE9041019481B4908231B4A72
:10355000CDE9001004211046FDF7E4F91849086090
:103560003C200968C88640F2D7101549096888864A
:103570001DE0144C1A212046FDF7FEFA1049086898
:1035800009680022CB6C1146984700200C49009036
:10359000086809684FF080430B4A8D6C4FF07C51EE
:1035A000A8471420FFF742FF00F0E0F800BFE0E773
:1035B000000C01400008004000040040001C0140D5
:1035C0008C0100202801002000004842F0B50B309B
:1035D000154D20F007010024144A0FE003688B42C8
:1035E0000BD38B4205D95E1A43184768C3E90067BD
:1035F00000E04368136002C004E0021D1068002868
:10360000ECD12046002802D1286808B10020F0BD86
:10361000064A07481060074A121A22F00702C0E95A
:10362000002401202860D7E7C0000020BC00002053
:10363000040200200004002010B594B004460020CD
:10364000ADF83400ADF83A008DF8420040F2E730B2
:10365000ADF83E000020ADF840006020ADF8360027
:103660000020ADF8440020680090A088ADF8040068
:10367000A0680290A089ADF80C00206A0890A08F85
:10368000ADF83C00606A0990208DADF8280000205C
:103690001290E06C139020690490A08AADF8140099
:1036A00000200690ADF81C00684600F017F80849A5
:1036B000084A127841F8220006480078401C054963
:1036C000087005480068401C0349086014B010BD2C
:1036D0008C0100208C0000206C00002070B5054695
:1036E0005020FFF773FF044628682060A888A08058
:1036F000A868A060A889A081286A2064A88FE081BA
:10370000E86C60641448A0641448E0642846FEF73E
:10371000EFFB2846FEF7B4FC2846FEF70BFC1048EA
:1037200001782846FDF772FD286BA06326460D48F8
:103730000B49097840F8216009480078401C084985
:10374000087008460078084908602846FFF7A2FE7E
:103750000025204670BD0000392200083D270008E2
:10376000B8000020E8010020B40000202DE9F0415D
:1037700088B01D480068C069029002AE042404E0CD
:10378000601E315C01AA1154C4B2002CF8DC019D0A
:1037900006208DF80C00FF208DF80D0000208DF81C
:1037A0000E0001208DF80F0000208DF810009DF80C
:1037B00004008DF811009DF805008DF812009DF8A9
:1037C00006008DF813009DF807008DF8140001988D
:1037D000FCF73CFF07463A460B4604A0FEF7DCFE2A
:1037E00008B0BDE8F08100008C0100202566200DA6
:1037F0000A00000010B586B0044601210420FDF740
:1038000023FC01214804FDF7FFFB03208DF806008F
:1038100018208DF807000420ADF8040001A9224803
:10382000FDF7A2FA04208DF807000820ADF8040087
:1038300001A91D48FDF798FA02940020ADF80C008C
:10384000ADF80E00ADF81000ADF814000C20ADF886
:10385000120002A91548FEF7DDFA26208DF80000B7
:1038600002208DF8010003208DF8020001208DF860
:1038700003006846FDF77EFB012240F224410B481D
:10388000FEF7A2FA01210948FEF711FA01224021B0
:103890000648FEF718FA6423054A0449091D05483D
:1038A000FDF73CFB06B010BD00080140004400409D
:1038B000280100206C00024010B586B004460121AA
:1038C00044F20400FDF7C0FB2948FEF705FA4FF467
:1038D0000070ADF8140003208DF8160018208DF844
:1038E000170005A92348FDF73FFA4FF48060ADF8B3
:1038F000140004208DF8170005A91E48FDF734FABE
:1039000001940020ADF80800ADF80A00ADF80C00F5
:10391000ADF810000C20ADF80E0001A91448FEF718
:1039200079FA25208DF8000002208DF801008DF82D
:10393000020001208DF803006846FDF71BFB012201
:1039400040F224410A48FEF73FFA01210848FEF7F9
:10395000AEF9012240210648FEF7B5F96423064A74
:103960000349091D0548FDF7D9FA06B010BD00004E
:103970000038014000080140C40000205800024007
:10398000A039000800000020C4000000B82500088D
:10399000643A0008C40000203C070000C825000865
:1039A00000000000010203040102030406070809E5
:1039B0000204060800A24A04000000000000000003
:1039C00001020304060708090000000000000000CF
:1039D00000000000000000000000000000000000E7
:1039E00000000000000000000000000000000000D7
:1039F00000000000000000000000000001000000C6
:103A000001000000010000000100000000000000B3
:103A100000000000000000000000000000000000A6
:103A20000000000000000000000000000000000096
:103A30000000000000000000000000000000000086
:103A40000000000000000000000000000000000076
:103A50000000000000000000000000000000000066
:043A60000000000062
:0400000508000131BD
:00000001FF
